:100000000C9452030C9471030C9471030C94D50A54
:100010000C9471030C9471030C9471030C94710390
:100020000C9471030C9471030C9471030C94710380
:100030000C9471030C9471030C9471030C94710370
:100040000C9471030C9471030C9471030C94710360
:100050000C9471030C9471030C9471030C94710350
:100060000C9471030C9471030C9471030C94710340
:100070000C9471030C9471030C9471030C94710330
:100080000C9471030C9471030C9471030C94710320
:100090000C9471030C9471030C9471030C94710310
:1000A0000C9471030C9471030C9471030C94710300
:1000B0000C9471030C9471030C9471030C947103F0
:1000C0000C9471030C9471030C9471030C947103E0
:1000D0000C9471030C9471030C9471030C947103D0
:1000E0000C9471030C9471030C9471030C947103C0
:1000F0000C9471030C9471030C9471030C947103B0
:100100000C9471030C9471030C9471030C9471039F
:100110000C9471030C9471030C9471030C9471038F
:10012000A913AE13B013B913C113CD13DE13EA1321
:100130000000000000000000065F0600000703004A
:10014000070300247E247E2400242B6A120000630F
:10015000130864630036495620500000070300006E
:1001600000003E4100000000413E000000083E1C2F
:100170003E080008083E08080000E0600000000893
:100180000808080800006060000000201008040251
:10019000003E5149453E0000427F40000062514907
:1001A0004946002249494936001814127F10002F91
:1001B00049494931003C4A49493000017109050368
:1001C00000364949493600064949291E00006C6C31
:1001D00000000000EC6C0000000814224100002424
:1001E0002424242400004122140800020159090695
:1001F000003E415D551E007E1111117E007F494970
:100200004936003E41414122007F4141413E007F4D
:1002100049494941007F09090901003E4149497A9C
:10022000007F0808087F0000417F41000030404007
:10023000403F007F08142241007F40404040007F43
:100240000204027F007F0204087F003E4141413EDC
:10025000007F09090906003E4151215E007F09091E
:1002600019660026494949320001017F0101003F1A
:100270004040403F001F2040201F003F403C403F87
:1002800000631408146300070870080700714945EB
:10029000430000007F4141000002040810200000DC
:1002A00041417F00000402010204008080808080C0
:1002B000000003070000002054545478007F444499
:1002C000443800384444442800384444447F0038CB
:1002D0005454540800087E0909000018A4A4A47C02
:1002E000007F040478000000007D4000004080840E
:1002F0007D00007F102844000000007F4000007C4B
:1003000004180478007C040478000038444444381D
:1003100000FC444444380038444444FC00447844DD
:10032000040800085454542000043E442400003CB7
:1003300040207C00001C2040201C003C6030603CC1
:10034000006C10106C00009CA0603C0000645454D1
:100350004C0000083E414100000000770000000012
:1003600041413E08000201020100003C2623263CD8
:1003700000000000000000000000065F5F060000B3
:100380000007070007070000147F7F147F7F140019
:10039000242E2A6B6B3A1200466630180C666200F7
:1003A000307A4F5D377A48000004070300000000F0
:1003B000001C3E63410000000041633E1C00000041
:1003C000082A3E1C1C3E2A080008083E3E08080079
:1003D000000080E06000000000080808080808002D
:1003E00000000060600000006030180C060301008F
:1003F0003E7F594D477F3E0040427F7F4040000096
:10040000627359496F660000226349497F360000D4
:10041000181C16537F7F5000276745457D39000023
:100420003C7E4B4979300000030371790F070000CF
:10043000367F49497F360000064F49693F1E00005C
:100440000000006666000000000080E66600000014
:10045000081C366341000000001414141414140026
:10046000004163361C080000000203595D070200CA
:100470003E7F415D5D5F0E007C7E13137E7C00003D
:10048000417F7F49497F36001C3E63414163220022
:10049000417F7F41633E1C00417F7F495D41630096
:1004A000417F7F491D0103001C3E634151337200AF
:1004B0007F7F08087F7F000000417F7F41000000B0
:1004C000307040417F3F0100417F7F081C7763000F
:1004D000417F7F41406070007F7F0E1C0E7F7F0058
:1004E0007F7F060C187F7F001C3E6341633E1C002B
:1004F000417F7F49090F06001E3F2131617F5E0069
:10050000417F7F09197F6600266F4D49597332007C
:1005100003417F7F410300007F7F40407F7F0000D9
:100520001F3F60603F1F00003F7F6030607F3F00E3
:1005300063771C081C776300074F78784F0700002B
:10054000476371594D677300007F7F414100000090
:100550000103060C183060000041417F7F0000005D
:10056000080C0603060C0800808080808080808054
:100570000000030704000000207454543C7840003D
:10058000417F3F4848783000387C44446C28000064
:10059000307848493F7F4000387C54545C18000054
:1005A000487E7F490306000098BCA4A4F87C0400A0
:1005B000417F7F08047C780000447D7D400000007E
:1005C00060E08084FD7D0000417F7F10386C440036
:1005D00000417F7F400000007C7C18781C7C780004
:1005E0007C7804047C780000387C44447C3800002B
:1005F00084FCF8A4243C1800183C24A4F8FC8400D3
:10060000447C784C040C1800485C5474642400004A
:1006100004043E7F442400003C7C40403C7C40007D
:100620001C3C60603C1C00003C7C6030607C3C00FA
:10063000446C3810386C44009CBCA0A0FC7C0000CA
:100640004C64745C4C64000008083E774141000033
:1006500000000077770000004141773E0808000065
:10066000020301030203010070784C464C787000CD
:100670000101637801110128633203C0F80002C34D
:100680000402C40502D01D02B30002B58B0138027A
:100690003A0202360002B09F05F012121212012037
:1006A0000129000011241FBECFEFD1E4DEBFCDBF72
:1006B00015E0A0E0B2E0EEEFF2E400E00BBF02C014
:1006C00007900D92A035B107D9F726E1A0E5B5E076
:1006D00001C01D92A537B207E1F70E946E1D0C9470
:1006E0007D210C940000EF92FF920F931F93CF9304
:1006F000DF9300D0CDB7DEB7962F9F7799831A820C
:10070000982F9295969597708F7120E167FF09C099
:10071000929FB001112492E0E92EF12C00E010E04C
:1007200007C0929FB0011124E12CF12C03E010E0EE
:1007300022E030E0AE014F5F5F4FECE08E9FC001E2
:1007400011240E947C0D0F900F90DF91CF911F918B
:100750000F91FF90EF900895CF92DF92EF92FF926A
:10076000CF93DF9380916D05882331F1C09072069D
:100770000C2C000CDD08EE08FF088CE0CC0CDD1C16
:10078000EE1CFF1C8A95D1F741E050E0C701B6018D
:100790000E94A010C3E7D6E0AE01C701B6010E94D7
:1007A00012118FEFD81AE80AF80AD39586E1C337F9
:1007B000D80791F710926D05DF91CF91FF90EF90E0
:1007C000DF90CF90089560917206862F660F990B87
:1007D000AA0BBB0BBC01CD012CE0660F771F881F55
:1007E000991F2A95D1F720E030E143E756E00E94B7
:1007F0008D1110926D05E3E7F6E0DF018D918F3FDB
:1008000001F586E1A135B807C9F7119286E1E13516
:10081000F807D9F780E2809377068AE2809378061A
:1008200095E4909379069DE490937A0690E59093F1
:100830007B0694E590937C0699E590937D068093E2
:100840007E060895DF92EF92FF920F931F93CF934E
:10085000DF9360916E05809171060E947303E090B2
:100860007316F09074168FEF80937106C0E0D0E09D
:1008700080E2D82E80916F05909170058E159F05AE
:1008800011F4C0937106FE01EF58FA4F9EEDE91680
:100890009FE0F90634F4D701AD58B94F6C9161115E
:1008A00002C08F0112C080816817C9F060838C2F4D
:1008B0000E94730314C0CE0101960F5F1F4F9C016D
:1008C0002F713327232B59F0EC01F80180818032FE
:1008D00091F3D08260E28C2F0E947303ECCFFFEF84
:1008E000EF1AFF0A2196CF3FD10521F21CF2809129
:1008F0007106E82FF0E0EF58FA4F608160936E05C3
:10090000209173163091741640916F0550917005C7
:100910004217530714F0803228F52115310531F0C4
:100920002150310930937416209373162091731659
:1009300030917416D9015F972115310529F4109271
:1009400074161092731631C02A173B0751F1A90192
:1009500041505109FA01ED58F94F9081992309F15D
:100960009A01EACF803E08F19EEDE9169FE0F90674
:10097000E4F4F901ED58F94FA901405E5F4F919100
:10098000992329F02F5F3F4F24173507C1F7309384
:1009900074162093731620917316309174162F5F7E
:1009A0003F4F30937416209373169091500595FF26
:1009B0000AC06058DF91CF911F910F91FF90EF9087
:1009C000DF900C947303DF91CF911F910F91FF90F3
:1009D000EF90DF9008958D58994FFC01808190ED44
:1009E000980F9A3030F08F7D9FEB980F81E09A310D
:1009F00008F480E00895EF92FF920F931F93CF9336
:100A0000DF9300D0CDB7DEB76F7769831A82E12C10
:100A1000F12C03E010E021E030E0AE014F5F5F4FCA
:100A200060E870E0E6E08E02C00111240E947C0DB7
:100A30000F900F90DF91CF911F910F91FF90EF904A
:100A40000895809172061816B4F480916D05811195
:100A50000E94AC03809172068150809372061092BE
:100A6000700510926F0510927416109273160E9402
:100A7000E30381E0089580E00895809172068F314C
:100A8000B4F480916D0581110E94AC0380917206CF
:100A90008F5F809372061092700510926F0510920E
:100AA0007416109273160E94E30381E0089580E0AB
:100AB000089581E080936D0580E090E1E3E7F6E042
:100AC000DF019C011D9221503040E1F7109270052A
:100AD00010926F051092741610927316089520915B
:100AE00050162F7DFC01ED58F94F21110CC0CF019C
:100AF000835796408E3D9F4024F480816193682FF8
:100B0000F6CF81E00895608380E00895FC01ED5800
:100B1000F94FCF01835796408E3D9F401CF4818151
:100B20008193F7CF10925016089520916F05309160
:100B3000700580E090E02115310529F410927005D0
:100B400010926F050895A90141505109FA01ED581D
:100B5000F94F6081662319F001969A01ECCF30932A
:100B6000700520936F05089580916F059091700531
:100B7000FC01ED58F94F019621912111FCCF909382
:100B8000700580936F05089520916F053091700571
:100B9000F901ED58F94F40814423A1F0820F931FD2
:100BA0002817390759F0A9014F5F5F4FFA01ED5837
:100BB000F94F6081662311F09A01F2CF30937005EE
:100BC00020936F0508950F931F93CF93DF93C091E8
:100BD0006F05D09170050E9495058C0180916F057D
:100BE00090917005009751F0019790937005809354
:100BF0006F050E949505C8010E94C405CE0180972B
:100C000020916F05309170052817390724F49093CF
:100C1000700580936F05DF91CF911F910F9108951B
:100C20000F931F93CF93DF93C0916F05D091700501
:100C30000E9495058C010E94B405C8010E94C4055C
:100C4000CE01809620916F05309170058217930731
:100C500024F49093700580936F0580916F059091B7
:100C600070058F3D9F4034F08DED9FE090937005AF
:100C700080936F05DF91CF911F910F91089580E0D0
:100C80000E94F60F80E091E0E1E7F5E0DF019C01D2
:100C90001D9221503040E1F7089597FD0BC08E3131
:100CA00091055CF4880F991FFC01EC54FD4F808185
:100CB0009181089580E090E0089581E090E00895AA
:100CC0002F923F924F925F926F927F928F929F925C
:100CD000AF92BF92CF92DF92EF92FF920F931F934A
:100CE000CF93DF93CDB7DEB7C559D1090FB6F894CE
:100CF000DEBF0FBECDBF4C017B015A016901702ED2
:100D00002DB73EB7C057DF4F39832883C059D04035
:100D10008DE10E942B16EDB7FEB7E81BF90B0FB65D
:100D2000F894FEBF0FBEEDBF2DB73EB72F5F3F4F0C
:100D300029018A2D880F880F9DE1692E680EE11424
:100D4000F10431F0C5010E944D068E159F0524F473
:100D5000C5010E944D067C01840120E04A2DB201AC
:100D6000CE0187579F4F0E943816711006C03DE094
:100D7000A316B1045CF021E010C08AE090E00E946C
:100D8000D3090E942C128823C1F3F1CF88E0A81662
:100D9000B10414F423E001C022E0C60163E070E076
:100DA0000E94491F7B01EE0CFF1CE60EF71E822EEF
:100DB000912CF601629EE00DF11D11243F01970177
:100DC0002C193D096901E614F7040CF07BC0C6013B
:100DD000B4010E94491F262E8E010F5F1F4FA12CC8
:100DE000B12C302E412EF6013196CE56DF4FF983CD
:100DF000E883C259D04096012E5F3F4FCC56DF4F5B
:100E000039832883C459D040F8011082C501B40148
:100E10000E94491F562E462F622DCE0187579F4FA5
:100E20000E943F1D882321F0F8018081806E80831D
:100E3000CE56DF4F88819981C259D040B4010E94BB
:100E4000491F452DCE0187579F4F0E943F1D882384
:100E500021F0F80180818C618083CC56DF4F88813E
:100E60009981C459D040B4010E94491F452DCE013B
:100E700087579F4F0E943F1D882321F0F8018081F2
:100E800083608083FFEFAF1ABF0A0F5F1F4F28E810
:100E9000A216B10409F0B8CF28E830E043E050E0F2
:100EA00060E070E0C7010E94D60B68E870E0832D17
:100EB000942D0E94260B33E0E30EF11C83E0C80E54
:100EC000D11C81CFC057DF4FE881F981C059D04094
:100ED0000FB6F894FEBF0FBEEDBFCB56DF4F0FB677
:100EE000F894DEBF0FBECDBFDF91CF911F910F9160
:100EF000FF90EF90DF90CF90BF90AF909F908F903A
:100F00007F906F905F904F903F902F900895A1E554
:100F1000B6E1EDEDFFE08E91811103C03197D9F775
:100F20000DC0ED58F94F8AE096E0E337F90731F04C
:100F30009081911101C080833197F6CF0895E0E54B
:100F4000F6E180818A3009F41082319786E0E33738
:100F5000F807B9F70895E1E5F6E18EED9FE0019716
:100F60002291211102C00097D1F7019608958F9226
:100F70009F92AF92BF92CF92DF92EF92FF920F9328
:100F80001F93CF93DF9310927A0080EC80937C00C4
:100F900087E880937A0010927B0084E58093770045
:100FA00087E980937A0080917E0080937E00809113
:100FB0007A00806480937A0060E78AE00E94FB04F4
:100FC00080917206CAE06C2F0E94271F6C2F0E942E
:100FD000271F60E3690F8BE00E94FB04809172067B
:100FE0006C2F0E94271F60E3690F8CE00E94FB04B6
:100FF0000E94AB078C0168EE73E00E94491FCB0191
:10100000CAE0D0E0BE010E94491F60E3680F8FE094
:101010000E94FB04C80164E670E00E94491FCB01F6
:10102000BE010E94491F60E3680F80E10E94FB043B
:10103000C801BE010E94491FF82ECB01BE010E94CB
:10104000491F60E3680F81E10E94FB0460E36F0DBC
:1010500082E10E94FB0462E683E10E94FB0460E2FD
:10106000809153050E94FB0420916F05309170051B
:101070004EE1429FC001439F900D1124B8010E9490
:10108000491F6F5D60341CF46093530503C08FE308
:10109000809353056CE780E20E94FB046CE78FE3CA
:1010A0000E94FB046AE2809153050E94FB04C0E0A9
:1010B000D0E0EE24E394F12CE016F10684F4C701AD
:1010C0000E94EB04882339F0C70101970E94EB04CA
:1010D000811101C021968FEFE81AF80AEDCFCE01F9
:1010E00068EE73E00E94491FCB010AE010E0B801EE
:1010F0000E94491F60E3680F85E10E94FB04CE0156
:1011000064E670E00E94491FCB01B8010E94491FAC
:1011100060E3680F86E10E94FB04CE01B8010E94E3
:10112000491FC82FCB01B8010E94491F60E3680F17
:1011300087E10E94FB0460E36C0F88E10E94FB04DE
:1011400067E789E10E94FB0480917A0086FDFCCF6D
:10115000809178006091790070E0762F6627680FA3
:10116000711D072E000C880B990B0E946B202DEC33
:101170003CEC4CEC5FE30E94F72020E030E040E8DC
:101180005AE30E94F72029EA37E848E85EE30E9424
:10119000C11F20E030E04AE754E40E94F7200E949B
:1011A00033204B015C0162E480E00E94FB04C50136
:1011B000B40128EE33E040E050E00E945D1F6AE099
:1011C000C62ED12CE12CF12CCA01B901A701960140
:1011D0000E945D1F605D82E00E94FB046EE283E07E
:1011E0000E94FB04C501B40124E630E040E050E079
:1011F0000E945D1FCA01B901A70196010E945D1FEF
:10120000605D84E00E94FB04C501B401A701960162
:101210000E945D1FCA01B901A70196010E945D1FCE
:10122000605D85E00E94FB0466E586E0DF91CF917A
:101230001F910F91FF90EF90DF90CF90BF90AF90F4
:101240009F908F900C94FB04CF92DF92EF92FF92CD
:101250000F931F93CF93DF930E94AB078C01EC0198
:1012600021960E9487070E943F0646E0E42EF12C5B
:10127000C7010E944D068C179D07CCF000E028E7BF
:1012800030E0A701BE0183E796E00E9460060E945D
:101290002C128823E1F30E943F06DF91CF911F912A
:1012A0000F91FF90EF90DF90CF900C949F078FEFFE
:1012B000E81AF80A8EE1E816F104D1F636E0E32EDA
:1012C000F12CC7010E944D066C01880F991F8C17E5
:1012D0009D07D4F000E02CE030E0A70160E070E072
:1012E00083E796E00E946006BE016C197D0920EF3D
:1012F00030E0A701C6018D58994F0E9460060E94F8
:101300002C128823E1F3C7CF8FEFE81AF80A8EE199
:10131000E816F104B1F686E0E82EF12C055B1940E1
:10132000C7010E944D066C018017910764F100E02F
:101330002CE030E0A70160E070E083E796E00E94D7
:10134000600620EF30E044E150E060E070E0C6016C
:101350008D58994F0E946006BE016C197D096A552F
:10136000734001E02CE030E04DE150E0C6018353D2
:10137000964F0E946006803209F08DCF0E942C1299
:101380008823E1F388CF8FEFE81AF80A8EE1E81698
:10139000F10431F6DF91CF911F910F91FF90EF9003
:1013A000DF90CF9008951816190644F4EFE9FFE096
:1013B0003197F1F700C000000197F5CF0895982FFD
:1013C000FB01DA018770907F903D19F128F4903A83
:1013D00041F0903B91F00895903E39F1903F89F1B2
:1013E0000895232B19F424E330E002C022E330E017
:1013F0002D933C9323E330E02FC0232B19F425E2F7
:1014000030E002C023E230E02D933C9324E230E050
:1014100023C0232B19F42BE230E002C029E230E094
:101420002D933C932AE230E017C0232B19F42EE2CF
:1014300030E002C02CE230E02D933C932DE230E00E
:101440000BC0232B19F421E330E002C02FE230E07F
:101450002D933C9320E330E03183208308951F9344
:10146000CF93DF9300D000D0CDB7DEB7162F20E0AA
:1014700030E0AE014D5F5F4FBE016F5F7F4F0E9456
:10148000DF09113001F180F01230B9F5E981FA81FC
:10149000408121E030E0B90102C0660F771F8A95D4
:1014A000E2F7CB01842B28C0E981FA81408121E059
:1014B00030E0B90102C0660F771F8A95E2F7CB01D1
:1014C0008095842319C0E981FA81408121E030E0D0
:1014D000B90102C0660F771F8A95E2F7CB01942FFE
:1014E000982B9083EB81FC819081982B9083E981EC
:1014F000FA8190818095892380830F900F900F90BF
:101500000F90DF91CF911F9108951F93CF93DF9399
:1015100000D000D0CDB7DEB7162F20E030E0AE010E
:101520004D5F5F4FBE016F5F7F4F0E94DF09EB8110
:10153000FC81408121E030E0B90102C0660F771FD5
:101540008A95E2F7CB01111103C08095842301C075
:10155000842B80830F900F900F900F90DF91CF918D
:101560001F910895CF93DF9300D000D0CDB7DEB7A1
:1015700021E030E0AE014D5F5F4FBE016F5F7F4FF6
:101580000E94DF09EB81FC81208130E0A90102C0CB
:10159000559547958A95E2F7CA0181700F900F9093
:1015A0000F900F90DF91CF9108951F920F920FB679
:1015B0000F9211248F9383B78E7F83BF8F910F90EB
:1015C0000FBE0F901F90189561E080EB0E94850A76
:1015D00062E080EB0E942F0A81E58CBD8DB58EB54F
:1015E00062E081EB0E942F0A62E082EB0C942F0AEA
:1015F000CF93DF931F92CDB7DEB7898389818EBDEC
:101600000DB407FEFDCF8EB50F90DF91CF910895F9
:101610001F93CF93DF93182FC091580560E08C2F54
:101620000E94850AD091570560E08D2F0E94850A9F
:10163000812F0E94F80A61E08D2F0E94850A61E0E7
:101640008C2FDF91CF911F910C94850ACF92DF925E
:10165000EF92FF921F93CF93DF937C016B01109168
:10166000580560E0812F0E94850AE701CE018E199E
:101670009F098C159D0524F489910E94F80AF6CFE4
:1016800061E0812FDF91CF911F91FF90EF90DF906C
:10169000CF900C94850ACF92DF92EF92FF920F9336
:1016A0001F93CF93DF9300D000D0CDB7DEB76C018E
:1016B000F62E8A01E22E8AE20E94080B198223E0AC
:1016C00030E0C601B9010E94491F6A831B82C6012E
:1016D000800F911F0197B9010E94491F6C8364E03C
:1016E00070E0CE0101960E94260B8BE20E94080B4F
:1016F0001982FA821B82EA94FE0CFC8264E070E09C
:10170000CE0101960E94260B8CE20E94080B0F90DE
:101710000F900F900F90DF91CF911F910F91FF903D
:10172000EF90DF90CF900895EF92FF920F931F9369
:10173000CF93DF9300D000D0CDB7DEB780E7E82E9F
:1017400086E0F82EC7010196F7010491033649F4AB
:10175000F2E0EF0EF11CFC01849190E00E94D309AD
:10176000F1CF0023C1F0F2E0EF0EF11CFC018491F7
:101770000E94080B015031F310E0A801B701CE011F
:1017800001960E946421E00EF11EB801CE0101967F
:101790000E94260BD7CF0F900F900F900F90DF91E4
:1017A000CF911F910F91FF90EF9008958038E1E065
:1017B0009E0764F4603A71054CF44138E1E05E073D
:1017C0002CF4213A310514F40C944B0B089581EC60
:1017D0000C94080B82EC0C94080B1F93CF93DF93AF
:1017E0001F92CDB7DEB72091540530915505820F79
:1017F000931F68E870E00E94491F182F80935405DA
:101800009093550587E30E94080B198361E070E00F
:10181000CE0101960E94260B0F90DF91CF911F9170
:101820000895CF93DF931F92CDB7DEB71092550581
:101830001092540587E30E94080B198261E070E062
:10184000CE0101960E94260B0F90DF91CF91089553
:10185000CF92DF92EF92FF920F931F93CF93DF937C
:10186000CDB7DEB7C058D1090FB6F894DEBF0FBEB2
:10187000CDBF6A01F22E440F551F4C0D5D1DFC01BA
:10188000EE0FFF1F98018E0F9F1F0E94D60BEF2DAA
:10189000F0E0E051FD4F608170E0A601CE010196BD
:1018A0000E947621E12CF12CE016F1064CF4B601F1
:1018B000CE0101960E94260B8FEFE81AF80AF4CFAA
:1018C000C058DF4F0FB6F894DEBF0FBECDBFDF911B
:1018D000CF911F910F91FF90EF90DF90CF900895DF
:1018E000EF92FF921F93CF93DF93CDB7DEB7C0582F
:1018F000D1090FB6F894DEBF0FBECDBF7A01122F0B
:10190000FC01EE0FFF1F9A0141E050E08E0F9F1F78
:101910000E94D60BE12FF0E0E051FD4F608170E0B6
:10192000A701CE0101960E947621B701CE01019652
:101930000E94260BC058DF4F0FB6F894DEBF0FBED3
:10194000CDBFDF91CF911F91FF90EF9008952F921F
:101950003F924F925F926F927F928F929F92AF923F
:10196000BF92CF92DF92EF92FF920F931F93CF938C
:10197000DF93CDB7DEB7C058D1090FB6F894DEBFFC
:101980000FBECDBF59018038910508F09BC0683863
:10199000710508F097C01C01240E351E20E82216A0
:1019A00031040CF08FC02B014A0C5B1CE8E84E168A
:1019B00051040CF087C03E2D6A014B013A01660CC0
:1019C000771C7C01EE0CFF1C332311F1A3014C0D9D
:1019D0005D1D95018E0D9F1D0E94D60BE12CF12CF3
:1019E00010E000511D4FEA14FB040CF06BC0F8012D
:1019F000608170E0A601CE0101960E947621B601B9
:101A0000CE0101960E94260BFFEFEF1AFF0AEBCFE3
:101A10006C0C7D1CE80EF91E21E030E0A301C7012B
:101A20000E94D60BE02FF0E0E051FD4F008110E066
:101A3000A601B801CE0101960E947621B601CE0121
:101A400001960E94260BB2016150710921E030E03D
:101A5000A301C7010E94D60BA601B801CE010196D1
:101A60000E947621B601CE0101960E94260B9501B7
:101A700043E050E0B401C7010E94D60BA501B801B4
:101A8000CE0101960E947621B501CE0101960E94F9
:101A9000260B21E0221A3108C101880F991F9501F8
:101AA00043E050E0B401820D931D0E94D60BA501C6
:101AB000B801CE0101960E947621B501CE010196B2
:101AC0000E94260BC058DF4F0FB6F894DEBF0FBE42
:101AD000CDBFDF91CF911F910F91FF90EF90DF90DD
:101AE000CF90BF90AF909F908F907F906F905F90BE
:101AF0004F903F902F9008952F923F924F925F9278
:101B00006F927F928F929F92AF92BF92CF92DF920D
:101B1000EF92FF920F931F93CF93DF93CDB7DEB772
:101B2000CC56D1090FB6F894DEBF0FBECDBF4C0125
:101B3000A1967FAF6EAFA197FA015901C801043099
:101B4000110514F083E090E0A7014430510514F032
:101B500043E050E08330910559F0682E282F2295FC
:101B6000220F220F207C582E550C550C550C05C009
:101B7000B3E06B2E1CE1512E20EEDA01A051BD4FD7
:101B80007C90DF010D900020E9F71197CD018E1BAD
:101B90009F0BBC01A501425051094230510508F08C
:101BA00010C133E0A316B10451F0ACE0EA2EF12CE1
:101BB00044E050E06F965FAF4EAF6F9709C05FE0B3
:101BC000E52EF12CA5E0B0E06F96BFAFAEAF6F97FA
:101BD0008E9DA0018F9D500D9E9D500D1124480D8E
:101BE000591D413851403CF080E891E0881999092D
:101BF000B7010E94491F77FDDDC16F964EAD5FAD05
:101C00006F9734E0440F551F3A95E1F7A6965FAF02
:101C10004EAFA6976F01CF01860F971FA8969FAF73
:101C20008EAFA897C701049763E070E00E94351F4C
:101C30006E5F7F4FDB01AA0FBB1FA496BFAFAEAF95
:101C4000A497F7013697AA96FFAFEEAFAA97922F07
:101C50009529872D8370982BA2969FAFA297872DE9
:101C60008F71282BAB962FAFAB97A8968EAD9FADFB
:101C7000A897C816D90609F4A1C0F3E0AF16B104BD
:101C800059F4D6016C91B8E06B9FB00111246059F2
:101C90007D4F48E050E00EC0F601808190E08097D3
:101CA00026E0289FB001299F700D1124605D7E4FB2
:101CB00046E050E0CE018B5A9F4F0E946421AE0156
:101CC0004F5F5F4F98E0292E312C11E0452C4628BC
:101CD0009A016F966EAD7FAD6F97640F751FAD96CD
:101CE0007FAF6EAFAD97FE01EB5AFF4F80E090E003
:101CF000AA96AEADBFADAA978A179B07CCF56081B7
:101D0000612321F0A2967FADA29701C0772D61815A
:101D1000612331F07C7F7629AB966FADAB9701C024
:101D2000672D0281012311F0607E6429AD96AEAD6E
:101D3000BFADAD977C93D9017C938630910549F076
:101D4000AD96AEADBFADAD9711966C93D90111961E
:101D50006C932E5F3F4F0396AD966EAD7FADAD9702
:101D60006E5F7F4FAD967FAF6EAFAD973396C0CFAE
:101D7000110FB1E02B1A3108A496EEADFFADA49778
:101D80004E0F5F1F2114310409F0A2CF20E130E093
:101D9000A701A1966EAD7FADA197C4010E94D60B9D
:101DA000A6966EAD7FADA697CE0101960E94260B3A
:101DB0008E0C9F1C7FEFC71AD70A57CF80E090E0A8
:101DC000FBC0AB2809F077C039E0369FC001379FD0
:101DD000900D1124880D991D8138914044F080E8C0
:101DE00091E08819990969E070E00E94491F77FD28
:101DF000E1C07F018F01060F171FCC24C394872DEC
:101E00008F71D22ED82AE016F106C1F2F701619146
:101E10007F01F8E06F9FB001112460597D4F48E0C9
:101E200050E0CE018B5A9F4F0E946421CE01019653
:101E300020E030E05C017C2D022E01C0770F0A9477
:101E4000EAF7FE01EB5AFF4FDC0140E050E0608111
:101E5000672311F06D2D01C0672D4180472211F0DD
:101E6000637E65294630510529F04280472211F0F2
:101E70006C7F66296D934D5F5F4F339649305105F6
:101E800031F703962F5F3F4F28303105A1F628E048
:101E900030E049E050E0A1966EAD7FADA197C4015E
:101EA0000E94D60B39E0830E911C68E170E0C501F9
:101EB0000E94260BA8CF36E0369FC001379F900DB9
:101EC0001124880D991D8138914044F080E891E0FB
:101ED0008819990966E070E00E94491F77FD6AC081
:101EE0007F018F01060F171FAA24A39485E5C82E32
:101EF000D12CCC0EDD1E56E0C50ED11C872D8F7166
:101F0000B22EB82AE016F10609F458CFD7018D9108
:101F10007D0190E0809726E0289FB001299F700DF9
:101F20001124605D7E4F46E050E0CE018B5A9F4FFA
:101F30000E946421CE01019620E030E0382E492E27
:101F40005A2D022E01C0550F0A94EAF7FE01EB5AF2
:101F5000FF4FDC014081452311F04B2D01C0472D7F
:101F60006181652311F0437E45296281652311F06B
:101F70004C7F46294D933396CE16DF0659F70296CD
:101F80002F5F3F4F28303105D9F628E030E046E09A
:101F900050E0A1966EAD7FADA197C4010E94D60B13
:101FA000B6E08B0E911C60E170E0832D942D0E94B1
:101FB000260BA8CF8FEF9FEFC459DF4F0FB6F894D1
:101FC000DEBF0FBECDBFDF91CF911F910F91FF906C
:101FD000EF90DF90CF90BF90AF909F908F907F90C9
:101FE0006F905F904F903F902F900895EF92FF92E7
:101FF0000F931F93CF93DF93CDB7DEB7C058D109AE
:102000000FB6F894DEBF0FBECDBFE82E28E830E053
:1020100040E851E060E070E080E090E00E944B0B0F
:1020200008E810E0F12C40E850E0B701CE0101963D
:102030000E94762160E870E0CE0101960E94260B96
:102040000150110981F7C058DF4F0FB6F894DEBF79
:102050000FBECDBFDF91CF911F910F91FF90EF90F9
:1020600008951F93CF93DF93D82F162FC42F8093FB
:10207000580560935705409356050E94E40A62E0B4
:102080008D2F0E942F0A62E083ED0E942F0A61E0EB
:102090008D2F0E94850A62E0812F0E942F0A62E044
:1020A0008C2F0E942F0A61E08C2F0E94850A82E308
:1020B00090E00E94D30960E0809156050E94850A55
:1020C00085E090E00E94D30961E0809156050E946E
:1020D000850A86E990E00E94D3090E94940B80E073
:1020E0000E94F60F80E090E0DF91CF911F9108955C
:1020F00080E00E94F60F88E20E94080B80E10C94B9
:10210000080B0E94781082E08093390110927A00C7
:1021100052985A9AEA98E9E6F0E080818F7E8083AF
:10212000808180628083E29AEA9A789483B7817F83
:10213000846083BF83B7816083BF88950C94940BC0
:10214000CF92DF92EF92FF921F93CF93DF936B01B9
:102150007C012FE0D222EE24FF24CD28CE28CF28E8
:1021600009F04FC0EA016B017C0160E083ED0E9441
:10217000850A85E00E94F80A80E00E94F80A182F7C
:1021800061E083ED0E94850A10FD3BC060E083EDB5
:102190000E94850A86E00E94F80A61E083ED0E94B1
:1021A000850A60E083ED0E94850A80E20E94F80AB9
:1021B0008E2D0E94F80A8D2D0E94F80A8C2D0E9407
:1021C000F80A61E083ED0E94850ACD2B09F160E0F9
:1021D00083ED0E94850AC8E7D0E011E010FF14C02B
:1021E00085E00E94F80A80E00E94F80A182F81E03A
:1021F00090E00E94D309219789F761E083ED0E9466
:10220000850A80E090E006C061E083ED0E94850AC7
:1022100081E090E0DF91CF911F91FF90EF90DF90F0
:10222000CF900895EF92FF920F931F93CF93DF9378
:10223000611163C08A01F82EEB0160E083ED0E941A
:10224000850A85E00E94F80A80E00E94F80AE82EDC
:1022500061E083ED0E94850AE0FC4FC060E083ED01
:102260000E94850A81E00E94F80A80E00E94F80A34
:1022700061E083ED0E94850A60E083ED0E94850A9B
:1022800086E00E94F80A61E083ED0E94850A60E022
:1022900083ED0E94850A82E00E94F80A8F2D0E9439
:1022A000F80A8D2F0E94F80A8C2F0E94F80AE80184
:1022B000139589910E94F80AC017D107D1F761E000
:1022C00083ED0E94850A60E083ED0E94850AC4E1E7
:1022D000D0E011E010FF14C085E00E94F80A80E011
:1022E0000E94F80A182F81E090E00E94D3092197FC
:1022F00089F761E083ED0E94850A80E090E006C0E6
:1023000061E083ED0E94850A81E090E0DF91CF914A
:102310001F910F91FF90EF900895DF92EF92FF923F
:102320000F931F93CF93DF93EB01D82E8A0179018E
:1023300060E083ED0E94850A83E00E94F80A8D2DFB
:102340000E94F80A8D2F0E94F80A8C2F0E94F80A2A
:10235000E801CE01801B910B8E159F052CF480E0C7
:102360000E94F80A8993F5CF61E083ED0E94850A07
:1023700081E090E0DF91CF911F910F91FF90EF905E
:10238000DF9008959F92AF92BF92CF92DF92EF922B
:10239000FF920F931F93CF93DF93CEEFD2E061E0D4
:1023A00089910E942F0A83E0C430D807C1F78AE0E0
:1023B000E3E6F5E0A9E5B5E001900D928A95E1F735
:1023C000C3E6D5E094EFE92E92E0F92ECC24C39435
:1023D000D12C1882F70191907F0162E0892D0E9433
:1023E0002F0A60E0892D0E94850A8EEFA82E82E0D8
:1023F000B82E00E010E0F50181915F010E94B20A61
:10240000811109C02881C601002E01C0880F0A94DD
:10241000EAF7822B88830F5F1F4F0630110559F7AB
:1024200061E0892D0E94850A60E0892D0E942F0AB3
:102430002196F5E0CD36DF0761F6DF91CF911F9150
:102440000F91FF90EF90DF90CF90BF90AF909F9053
:10245000089583E695E00895CF92DF92FF920F935F
:102460001F93CF93DF930E94C21180916305982F31
:102470009870F92E782F707183E6C82E85E0D82EDB
:10248000A9E5B5E020E030E080E0F60101916F01C0
:10249000F9016DEF91E0122F402F4923491317C026
:1024A0004C914923A1F4111102C0623080F0F11067
:1024B00005C0772331F040E052E005C04CE352E024
:1024C00002C048E752E04E0F5F1FEA018881990F72
:1024D0006F5F3A96633001F72F5F3F4F11962A30B6
:1024E000310599F6DF91CF911F910F91FF90DF9009
:1024F000CF90089582ED0E94B20A91E0811190E0A0
:10250000892F08958A3038F08B3150F08EEE91E0AB
:10251000A0E0B0E009C08AE098EBABEBB7E004C004
:102520008CED9DEDA3E0B0E023E0629FB0011124AB
:1025300004C0B695A795979587956A95D2F7877049
:10254000885F8F3009F480E10895CF92DF92EF9297
:10255000FF920F931F93CF93FC01C080D180E28044
:10256000F380CFEFC20FC7FD32C09701860183E031
:1025700036952795179507958A95D1F78681978186
:10258000DC01A00FB11F8A019B010C2E04C03695FF
:102590002795179507950A94D2F7017011272227DE
:1025A0003327C601809590958770992704C0000F46
:1025B000111F221F331F8A95D2F78C91082B0C9381
:1025C000C1508FEFC81AD80AE80AF80ACCCFC082E7
:1025D000D182E282F382CF911F910F91FF90EF9011
:1025E000DF90CF900895CF93DF93FC01D62FA42FD7
:1025F000C22F2081318142815381B0E00E94851F2A
:10260000DC01CB018D0F911DA11DB11DAC014095C9
:1026100050954770552721E030E001C0220F4A95C0
:10262000EAF733E0B695A795979587953A95D1F750
:1026300046815781FA01E80FF91FCC2319F08081F8
:10264000282B03C02095808128232083DF91CF9100
:1026500008950F931F93FC01162FA42F2081318121
:1026600042815381B0E00E94851FDC01CB01810FC4
:10267000911DA11DB11D8C019D0143E0369527954B
:10268000179507954A95D1F746815781FA01E00FD2
:10269000F11F208130E0BC0160957095677077274D
:1026A000C90102C0959587956A95E2F781701F91DF
:1026B0000F9108952F923F924F925F926F927F9267
:1026C0008F929F92AF92BF92CF92DF92EF92FF9242
:1026D0000F931F93CF93DF93CDB7DEB72E970FB62F
:1026E000F894DEBF0FBECDBF5C014B01DC01EC9066
:1026F0001886842F90E0A0E0B0E08B839C83AD83AC
:10270000BE8303E010E038853E1508F0C7C0832F74
:102710008695282E312C1F82432E512C612C712C32
:10272000C32ED12C832F8170FF24F394F826488583
:102730006F81C4010E9429138111A6C0AB81BC81A5
:10274000A830B10508F057C0FD01E057FF4F0C94C9
:102750007C1FF601BF81EB0FF11D1CC0EF2D4CC09B
:102760008F8163E00E941B1FE1E0992309F444C0BC
:1027700042C0C601EF818E0F911DB8010E94491F12
:1027800019C0FF812BEAF29F812D11248695F1015A
:10279000E80FF11DE095E1702FC03F814885349F1F
:1027A000C00111249C0121703327B8010E94491FE8
:1027B000820F931FE1E0892BF9F01DC05F818885AE
:1027C000589FF0011124CF01B8010E94491FE80F62
:1027D000F91FE0CFAF81B885AB9FC0011124B801CC
:1027E0000E94491F9601EF812E0F311D820F931F0A
:1027F0008095E82FD0CFE0E0D5016D917D918D914E
:102800009C91A30192010E940B1FDC01CB01FF816F
:102810008F0F911DA11DB11D9C0120953095B9010F
:102820006770772721E030E0062E02C0220F331FA9
:102830000A94E2F73E872D879C01AD0183E056950F
:102840004795379527958A95D1F729873A874B87FA
:102850005C87D50116962D913C911797A985BA856D
:10286000A20FB31F8C91282F30E002C03595279519
:102870006A95E2F72170E21719F0ED858E2B03C0FF
:102880004D85409584238C93FF81FF5FFF83FE1568
:1028900008F44DCF28852F5F288735CF2E960FB6A9
:1028A000F894DEBF0FBECDBFDF91CF911F910F9186
:1028B000FF90EF90DF90CF90BF90AF909F908F9060
:1028C0007F906F905F904F903F902F900895EF9280
:1028D000FF920F93CF93DF937B01C42FD22F202F32
:1028E0004D2F6C2F0E94F31221E04D2F6C2FC7014A
:1028F000DF91CF910F91FF90EF900C94F3122F92F4
:102900003F924F925F926F927F928F929F92AF927F
:10291000BF92CF92DF92EF92FF920F931F93CF93CC
:10292000DF93CDB7DEB729970FB6F894DEBF0FBEA1
:10293000CDBF3C014B01FC01A0808CEF9FEF99873C
:10294000888710E0E42FF0E0FD83EC83B12C422E69
:10295000512CA201445051095F834E83CC80DD800D
:10296000F4E0CF1AD1088CEFE82EFF24FA942884E3
:102970003984240C351C4E81410F49838885998503
:102980009195819591099B838A83D7FC25C0CA14B0
:10299000DB0414F537FC20C02A143B04ECF4C70117
:1029A000F7FE04C0882799278E199F092885398545
:1029B00037FF02C02A813B81821793070CF4C901BB
:1029C000823019F001E0843009F400E029814C2DB7
:1029D000B401C3010E9467145FEFC51AD50A8FEFD7
:1029E000E81AF80A95E0E916F10479F61F5FE88520
:1029F000F9853196F987E887359709F0AFCF2996A1
:102A00000FB6F894DEBF0FBECDBFDF91CF911F91FF
:102A10000F91FF90EF90DF90CF90BF90AF909F907D
:102A20008F907F906F905F904F903F902F90089580
:102A30004F925F926F927F928F929F92AF92BF92CE
:102A4000CF92DF92EF92FF920F931F93CF93DF937A
:102A50007C016B01FC011081F8E04F9F40011124C3
:102A6000822A092C000CAA08BB08D501C401CAE0BF
:102A7000D0E02C013D01440C551C661C771C9C01C8
:102A8000AD01E9E05695479537952795EA95D1F739
:102A9000A7E3B5E00E94851FDC01CB0184259525C5
:102AA000A625B725219729F7240135016AE0440CB2
:102AB000551C661C771C6A95D1F7482A592A6A2A40
:102AC0007B2A22E1422624E55226A12CB12CD301F7
:102AD000C2010A2C04C0B695A795979587950A94CC
:102AE000D2F7082F01702A2D48E0B601C7010E94D5
:102AF00067148FEFA81AB80AE6E0AE16B10439F7EA
:102B0000D301C20126E0B695A795979587952A959A
:102B1000D1F7082F017027E048E0B601C7010E94F5
:102B20006714D301C20137E0B695A79597958795AD
:102B30003A95D1F7082F017028E048E0B601C701A7
:102B40000E946714052D017028E047E0B601C70117
:102B50000E94671449E0A42EB12C55E0952ED301B4
:102B6000C2010A2C04C0B695A795979587950A943B
:102B7000D2F7082F017028E0492DB601C7010E9445
:102B800067149A94FFEFAF1ABF0A2FEF9212E7CFA4
:102B9000BB24BA94B10ED301C2010C2E04C0B69569
:102BA000A795979587950A94D2F7082F017028E08A
:102BB0004B2DB601C7010E9467142196BA94C83004
:102BC000D10549F787E0B82ED301C2010C2E04C00D
:102BD000B695A795979587950A94D2F7082F017017
:102BE000212F2B1948E0B601C7010E946714BA943F
:102BF0002196B110E9CF28EF210F01E048E0B6019E
:102C0000C7010E946714DF91CF911F910F91FF9030
:102C1000EF90DF90CF90BF90AF909F908F907F907C
:102C20006F905F904F900895E0EDE80FEA3010F458
:102C30008E2F08959FEB980F9A3110F487530895C3
:102C400080528B3130F4E82FF0E0EC5FFC4F808154
:102C500008958FEF0895880F880F8F5E889FC001B9
:102C60001124079623E0959587952A95E1F7089515
:102C70002F923F924F925F926F927F928F929F928C
:102C8000AF92BF92CF92DF92EF92FF920F931F937A
:102C9000CF93DF93CDB7DEB7E8970FB6F894DEBFDA
:102CA0000FBECDBF9AA389A31B01D42E8DB69EB6AD
:102CB0009BAA8AAA942E990C990C998EC92C31E161
:102CC000C30EDC014C931196CC92119712962C9363
:102CD000129716967C936E931597220F81EB90E0D6
:102CE00002C0959587952A95E2F7B82FB370BFA3D8
:102CF000842E912C98A28F8E240121E0421A510833
:102D0000F201EE0FFF1FE15EFC4F808191814C01CB
:102D100023E0969487942A95E1F79CA28BA28B2EB0
:102D2000912C99A688A6F20128E2B29FE00DF11D30
:102D30001124EE0FFF1FE15FFB4F808091809EA268
:102D40008DA22BA13CA1281939093C8F2B8F9C0106
:102D500040E050E02CA73DA74EA75FA7BA01A9010C
:102D6000495F5F4F6F4F7F4FE3E0769567955795CB
:102D70004795EA95D1F78DB79EB7841B950B0FB693
:102D8000F8949EBF0FBE8DBF0196198A1A8A1B8ABE
:102D90001C8A5E8B4D8B988F8F8B60E070E00E9459
:102DA000762148018E0C9F1C5801F401E017F107B1
:102DB00009F4EBC5829180538A30C0F33401601668
:102DC000710609F4FEC5F30182913F010E941416B9
:102DD0008F3FA9F78E010F5E1F4F24E044E050E0C3
:102DE00060E070E0C8010E94A51262E08D2D0E9493
:102DF0008212A70160E070E0282FC8010E94A5128E
:102E00008A149B0459F0F50141915F01042E000CD6
:102E1000550B660B770B28E0C801F0CF82E02BC082
:102E2000D5013D915D01F49EC001F59E900D1124E8
:102E3000AC0140535109430F511D37FD5A952F5F87
:102E4000233049F460E070E02AE0C8010E94A51236
:102E500020E040E050E08A149B0411F7222351F057
:102E6000822F880F280F2F5F60E070E0CE0141961F
:102E70000E94A51280E0A9A1BAA113968C938B8C15
:102E80009C8CF3E0880C991CFA95E1F7A12CB12CED
:102E900089899A89AB89BC89A5019401281B390BC2
:102EA0004A0B5B0B253031054105510520F024E02C
:102EB00030E040E050E08E010F5E1F4F40E050E0F8
:102EC000BA01C8010E94A51229892195277040E006
:102ED00050E0BA01C8010E94A512ECEEFE2EE12ED0
:102EE0001DEF89899A89AB89BC8988159905AA053E
:102EF000BB0558F44F2D50E060E070E028E0802FD3
:102F00009E2D0E94A512F126ECCF8C2C912CA12C89
:102F1000B12C89869A86AB86BC86CC9C8001112414
:102F2000095F1F4F73E0159507957A95E1F71E87A6
:102F30000D87388A2F86A80160E070E0C1010E94E9
:102F40007621EDB7FEB7E01BF10B0FB6F894FEBF8C
:102F50000FBEEDBF8DB79EB7019689829A82AB8274
:102F6000BC821E830D8398878F83A80160E070E088
:102F70000E94762110E0EE24E3941C15C8F4812F02
:102F80008170F82EFE240F2D212F46E0BE016F5FC9
:102F90007F4FCE0109960E94671426E0412FBE01A3
:102FA0006F5F7F4FCE0109960E9467141F5FE5CFC8
:102FB00023E043E0BE016F5F7F4FCE0109960E9480
:102FC0007F1423E0198D135F412FBE016F5F7F4F88
:102FD000CE0109960E947F14212F43E0BE016F5F4E
:102FE0007F4FCE0109960E947F14F1E0FD1508F095
:102FF000CAC08DB69EB69BA68AA68D2D67E00E949C
:103000001B1F482F12E0180F212F30E060E2962E90
:10301000D91489F0C9018D0D911D8D0D911D880F59
:10302000991F0196B90161507109660F771F0E94BF
:10303000491F660F01C06AE14F5F190151E0251A6F
:1030400031088DB79EB7821B930B0FB6F8949EBFC5
:103050000FBE8DBFADB7BEB71196BE8FAD8F86E0E8
:10306000EDB7FEB78183998D965F842F242F281B9F
:1030700030E02215330544F4ED8DFE8DE80FF11D8F
:103080009083961B8150F2CF8D8C9E8C9A8E898E68
:10309000612C712C8D8C9E8C9C8E8B8E812C912C16
:1030A000C62CC11007C0882009F44FC02814390469
:1030B00009F44BC02614370419F4882009F445C0DC
:1030C000AB8DBC8DBC91B8ABE98DFA8DF081F9ABBD
:1030D000BEEFEB2EFF24FA94AEEFAA2EBB24BA94D7
:1030E000882799278E199F099DAB8CAB98A99E0DB7
:1030F0009EABC501B7FE04C0882799278A199B0992
:103100009701F7FE02C02CA93DA9821793070CF482
:10311000C90101E0019709F400E049A94A0D2EA96F
:10312000BE016F5F7F4FCE0109960E9467142FEF9B
:10313000A21AB20A33E0A316B104D9F64FEFE41A8B
:10314000F40A53E0E516F10439F6AFEF8A1A9A0A49
:10315000EB8DFC8D3196FC8FEB8F811608F4A1CF9F
:10316000FFEF6F1A7F0A298D3A8D2F5F3F4F3A8FFD
:10317000298F611608F48ECF8AA49BA40FB6F89409
:103180009EBE0FBE8DBE20E04FA1BE016F5F7F4F80
:10319000CE0109960E941815E985F6E09F2E9D1430
:1031A00008F45EC08DB69EB698A28F8E88E288A481
:1031B00099A4889DF001899DF00D1124E159FC4FDF
:1031C000E40DF51D0081802E912C8DA19EA1B401EE
:1031D0000E94351F3B01A62E8BA19CA1B4010E9429
:1031E000351F202F281B2D8F162F16194D895E890C
:1031F0008DB79EB7841B950B0FB6F8949EBF0FBE7C
:103200008DBFADB7BEB71196BA8FA98F60E070E0E1
:10321000CD010E9476217724EDB7FEB7E619F709B4
:103220000FB6F894FEBF0FBEEDBF2DB73EB72F5FB0
:103230003F4F3C8F2B8FA30160E070E0C9010E94DB
:103240007621EB8DFC8DE60DF71D319781E08083B3
:10325000B12C41E050E0EDE14E2E552453947CC05A
:103260008D2D90E0A0E0B0E0FCE04C015D01880C09
:10327000991CAA1CBB1C9C01AD017BE0569547958F
:10328000379527957A95D1F7A5E2BFE10E94851F72
:10329000DC01CB0188259925AA25BB25F15029F70A
:1032A000CF8CD8A0DC2CCC24D29420EFD2220D2CB1
:1032B000000CEE08FF08C82AD92AEA2AFB2AA12C0A
:1032C000B12C35EF732E7E0E43E0342E5BEA652E73
:1032D000D701C6010A2C04C0B695A7959795879586
:1032E0000A94D2F7382F31708A2D632D0E941B1F4C
:1032F000972C990EA69C112D11241695032F212F82
:10330000492DBE016F5F7F4FCE0109960E94671461
:10331000292D412FBE016F5F7F4FCE0109960E947C
:1033200067144FEFA41AB40A52E1A516B10481F64E
:1033300039CF9A01220F331F440F452F441F550BDD
:103340005195449DC001459D900D549D900D1124B3
:10335000A90148275927B394BA1408F040C0EB8D4F
:10336000FC8D60E070E01A0133246A1510F7E080EC
:10337000A7E0B0E080E090E0F12C6C01CC0CDD1C0B
:103380009C01220F232F221F330B3195249DC00156
:10339000259D900D349D900D11248C259D25910126
:1033A0000A2E02C0359527950A94E2F7217033273B
:1033B0002E9D60012F9DD00C3E9DD00C11248C259C
:1033C0009D251197D0F681936F5F7F4F6615770526
:1033D00064F6DF011197908189278C93C6CF2F88DF
:1033E000388C298D3A8D80E090E08117B8F4F9018E
:1033F000712FAC0160E0061769F0D101A40FB51F71
:10340000AC91A193AD8DA61301C07F5F470F511DF5
:103410006F5FF1CF280D391D0196E7CF8D8C282DD8
:1034200030E0A9014F5F5F4F149FC001159F900DC1
:103430001124A98DBA8D019FA00DB11D1124712FEA
:1034400060E0402E512CA201421B530B9A01FD015A
:10345000898C9A8CE819F909462F50E042175307D6
:1034600064F4F101E80FF91F40814D93611101C02F
:103470007F5F870F911D6F5FEACF21E0621A7108AD
:10348000469CA001479C500D569C500D11245CA3F6
:103490004BA3E80DF91DB12C5B8D5AA70B1509F450
:1034A00079C08D8C8B1001C01F5F2DA231012BA123
:1034B0003CA12E0F3F1F39A728A7862D8DA0881964
:1034C000811708F062C0D3018D903D01808188266C
:1034D000CF01AF0121E0440D551D2A1540F4DA015A
:1034E0003C91DC013C932F5F840D951DF4CFA8A582
:1034F000B9A51C92BB8DBCAB9C8C9DAAAF01282D9D
:1035000030E038AF2FAB8CA9BAA58B1B8A15A8F673
:10351000ACA9BDA9ED90BDABACAB67E070E080E0BD
:1035200090E0F12C6C01CC0CDD1C9C01220F232FB0
:10353000221F330B31958DE1882E99249394289D79
:10354000C001299D900D389D900D11248C259D253D
:103550002FA938AD062E02C0359527950A94E2F7BB
:10356000217033272E9D60012F9DD00C3E9DD00CE5
:1035700011248C259D2561507109A0F6DA019C91DA
:1035800089278C93440D551DBECF210E311CB39459
:10359000319684CF4D895E89698D7A8D8F89988D1A
:1035A0000E946D212CA53DA54EA55FA5298B3A8BC8
:1035B0004B8B5C8B8F8C98A00FB6F8949EBE0FBE81
:1035C0008DBE29883A884B885C88CF88D88C7984CE
:1035D000072D10E001501109812C912C54012FEF7F
:1035E000270D2F8F101611060CF05DC00630110547
:1035F00011F405E010E0E12C3EEF300F3B8FC801E5
:103600009695879541E08427582F51705D8FE71478
:1036100008F046C0F02E8F8D8E19898F81E095E0DD
:103620009F1508F480E0AD8DA81711F0698C01C0DA
:103630006E2C462D6F2DCE0101960E94291381110B
:1036400029C082149304A404B50420F5D501C40153
:1036500053E0B695A795979587955A95D1F7F601BA
:10366000E80FF91F208130E0C401809590958770A4
:10367000992702C0359527958A95E2F72170462D46
:103680006F2DCE0109960E94F312BFEF8B1A9B0A91
:10369000AB0ABB0AFA94EB8DEF11C0CFE394B7CF1E
:1036A000025011099FCFB12C22242A94322C422C93
:1036B0004FE7542EA12C2B2D4FA1BE016F5F7F4FE2
:1036C000CE0109960E9418154B2DBE016F5F7F4FEA
:1036D000CE0109960E945A13898410E0C12CD12C86
:1036E0007601181558F5412F60E0CE0109960E9429
:1036F0002913782E01E0992493949814E8F4412F2B
:10370000692DCE0109960E942913871111C00F5F00
:10371000053031F4F3E0CF0ED11CE11CF11C09C0DF
:10372000063038F02FEFC21AD20AE20AF20A01C0BC
:1037300001E09394782EE1CF1F5FD3CF10E01815EE
:1037400058F540E0612FCE0109960E942913782E8A
:1037500001E0992493949814E8F4492D612FCE0147
:1037600009960E942913871111C00F5F053031F4AB
:1037700033E0C30ED11CE11CF11C09C0063038F047
:103780004FEFC41AD40AE40AF40A01C001E093948A
:10379000782EE1CF1F5FD3CF712C1E8E1D8E781433
:1037A00008F074C0912C00E010E01C8E1B8EBFEF5F
:1037B000B70DBF8F981408F067C0472D692DCE0153
:1037C00009960E942913682E992031F1772021F162
:1037D0004F8D5FEF590D598F652FCE0109960E94CD
:1037E00029138BA34F8D692DCE0109960E942913B1
:1037F0008DA3472D698DCE0109960E9429139BA1A7
:1038000069120AC0ADA16A1207C0681205C0B3E010
:10381000CB0ED11CE11CF11C8B8D9C8D880F991F48
:103820009770FC01E629FC8FEB8F000F111F1770BA
:10383000492D672DCE0109960E942913082BF9E026
:10384000F915C8F42B8D3C8D2D35310519F0203D2F
:10385000354029F458E2C50ED11CE11CF11C0D3590
:10386000110521F0003D85E0180729F498E2C90E02
:10387000D11CE11CF11C662029F0AD8DBE8D119686
:10388000BE8FAD8F939496CF739489CF889CC001DF
:10389000112424E18D8C9E8C289DB001299D700DF2
:1038A000112439E0389F8001399F100D11244BE01D
:1038B000489FD001499FB00D112420E030E040E046
:1038C00050E0F801E40FF51F6E177F0750F4EAE0AF
:1038D000CE0ED11CE11CF11C481B590B280F391FBF
:1038E000F0CFFD01E20FF31FE617F70780F30D2C71
:1038F000000CEE08FF08C214D304E404F5041CF421
:1039000016012701AB2C4B2DBE016F5F7F4FCE01FF
:1039100009960E945A13B394F8E0BF12CCCEA9A125
:10392000BAA11496AC922A2D4FA1BE016F5F7F4FB2
:10393000CE0109960E9418154A2DBE016F5F7F4F78
:10394000CE0109960E945A1380E08AA89BA80FB660
:10395000F8949EBE0FBE8DBEE8960FB6F894DEBFFB
:103960000FBECDBFDF91CF911F910F91FF90EF90D0
:10397000DF90CF90BF90AF909F908F907F906F908F
:103980005F904F903F902F9008958E010F5E1F4FD4
:1039900024E041E050E060E070E0C8010E94A51220
:1039A00060E08D2D0E948212A70160E070E0282F58
:1039B000C8010E94A51220E040E050E09AE0F92EF4
:1039C0004ACA8E010F5E1F4F24E042E050E060E0E3
:1039D00070E0C8010E94A51261E08D2D0E94821244
:1039E000A70160E070E0282FC8010E94A512F12C09
:1039F00040E050E08DE2E82E702E612E8A149B0488
:103A000001F1E49E8001E59E100D1124D5018D91F8
:103A10005D010E941416A801480F511D87FD5A959B
:103A2000B1E0FB120BC060E070E02BE0872D962D1B
:103A30000E94A512F12C40E050E0E0CFFF24F39467
:103A4000DDCFFF2039F060E070E026E0CE01419646
:103A50000E94A51281E00FCAEF92FF920F931F936D
:103A6000F80101900020E9F731977F01E01AF10A8F
:103A70000E9438161F910F91FF90EF9008950F93B9
:103A80001F93FC019181691728F5491718F570E01B
:103A9000499F600D711D11248B01072E000C220B14
:103AA000330B83E036952795179507958A95D1F7BF
:103AB00085819681FC01E00FF11F808190E0609587
:103AC00070956770772702C0959587956A95E2F79C
:103AD000817001C080E01F910F91089582E0809372
:103AE000390142EA50E066ED70E087EE90E00E9416
:103AF000311080E091E0E1E7F5E0DF019C011D92EB
:103B000021503040E1F7109272060E94E30388EEE4
:103B100093E00E94D3090E94E30310927005109273
:103B20006F050E9422040E94B707E12CF12C10E0DF
:103B3000D0E081E7C82E85E0D82EA12CBB24B39419
:103B4000772473942DED822E2FE0922E0E942C125A
:103B5000C82F811145C08AE090E00E94D3093FEF51
:103B6000E31AF30A0E947A12882381F080915105AA
:103B7000909152050196909352058093510584E6E9
:103B8000E816F10489F40E94B7070EC0109252059E
:103B90001092510594E6E916F104A9F3A1E3EA169F
:103BA000A5E7FA0640F427C080915105909152058F
:103BB0008D3291409CF30E94AC038AE090E00E9419
:103BC000D3090E948110F6019501119221503040D5
:103BD000E1F71092520510925105E12CF12C0BC027
:103BE000E12CF12C863F21F0873F21F010E002C04C
:103BF00010E001C0D0E0809150058F5F80935005A8
:103C0000CE3009F4B4C0A0F5C53009F4C3C060F4E7
:103C1000C23009F457C008F4E4C0C33009F458C0F6
:103C2000C43009F4ACC0CDC0CA3009F4B6C058F4F1
:103C300080916F0590917005C83009F453C0C93068
:103C400009F45CC0BEC0CB3009F4B0C0CD3009F07F
:103C5000B8C080916F05909170059C012F5F3F4F18
:103C60003093700520936F0560E00E946F05B9C026
:103C7000C53F09F446C0A0F4C23F09F456C048F459
:103C8000CF3009F47FC0C13F09F09BC00E94AC0354
:103C9000A8C0C33F09F44BC0C43F09F44AC091C057
:103CA000C83F09F43FC028F4C63F71F1C73F99F1FE
:103CB00088C0C93F09F47DC0CA3F09F082C00E9494
:103CC0003D058FC080916F0590917005019705C0EB
:103CD00080916F0590917005019690937005809387
:103CE0006F057FC0181619062CF401979093700584
:103CF00080936F0580916F05909170050E948605F5
:103D000070C00E9421056DC0DF5FD33008F469C028
:103D10000E94590566C01F5F133008F462C00E94FC
:103D2000E3035FC00E9424095CC00E94E70B0E946D
:103D3000EA0B0E943F0600E02AE030E04DE150E04F
:103D400060E070E083E796E00E94600626EE30E0D7
:103D50004DE150E060E070E08FEC9CE00E94600676
:103D60000E942C128823E1F30E943F063AC00E9471
:103D7000E3050E94E3050E94E3050E94E3050E941B
:103D8000E3052FC00E9410060E9410060E94100634
:103D90000E9410060E94100624C010927005109216
:103DA0006F0510927416109273161BC00E94AB0719
:103DB00094CF0E948110D601F5011D923197E9F749
:103DC00010C080916F05909170059C012F5F3F4F4F
:103DD0003093700520936F056C2F0E946F057092D1
:103DE0006D0580916F059091700597FF04C010924A
:103DF000700510926F0580916F05909170058E3D52
:103E00009F4024F09092700580926F051092511699
:103E10000E9422049BCEDB018F939F930E94851FFB
:103E2000BF91AF91A29F800D911DA39F900DB29F56
:103E3000900D11240895991B79E004C0991F9617DD
:103E400008F0961B881F7A95C9F78095089587FB1F
:103E5000082E062687FD819567FD61950E941B1F30
:103E60000EF4919507FC81950895AA1BBB1B51E1A7
:103E700007C0AA1FBB1FA617B70710F0A61BB70BDA
:103E8000881F991F5A95A9F780959095BC01CD017F
:103E9000089597FB072E16F4009407D077FD09D0FC
:103EA0000E94351F07FC05D03EF4909581959F4FE9
:103EB0000895709561957F4F0895052E97FB1EF428
:103EC00000940E94741F57FD07D00E94901F07FCAA
:103ED00003D04EF40C94741F509540953095219565
:103EE0003F4F4F4F5F4F0895909580957095619526
:103EF0007F4F8F4F9F4F0895EE0FFF1F0024001C30
:103F00000BBE0790F691E02D09940E94B21FA59F69
:103F1000900DB49F900DA49F800D911D11240895C4
:103F2000A1E21A2EAA1BBB1BFD010DC0AA1FBB1FBD
:103F3000EE1FFF1FA217B307E407F50720F0A21B2F
:103F4000B30BE40BF50B661F771F881F991F1A949C
:103F500069F760957095809590959B01AC01BD01C6
:103F6000CF010895A29FB001B39FC001A39F700D20
:103F7000811D1124911DB29F700D811D1124911D71
:103F800008950E94D51F0C94BD200E94B62058F0C1
:103F90000E94AF2040F029F45F3F29F00C94A62046
:103FA00051110C94F1200C94AC200E94CE2068F3A7
:103FB0009923B1F3552391F3951B550BBB27AA27E2
:103FC00062177307840738F09F5F5F4F220F331F1C
:103FD000441FAA1FA9F335D00E2E3AF0E0E832D0E4
:103FE00091505040E695001CCAF72BD0FE2F29D0E7
:103FF000660F771F881FBB1F261737074807AB07B9
:10400000B0E809F0BB0B802DBF01FF2793585F4F2D
:104010003AF09E3F510578F00C94A6200C94F120C4
:104020005F3FE4F3983ED4F3869577956795B7950F
:10403000F7959F5FC9F7880F911D9695879597F91A
:104040000895E1E0660F771F881FBB1F6217730793
:104050008407BA0720F0621B730B840BBA0BEE1FA8
:1040600088F7E09508950E943A206894B1110C9465
:10407000F12008950E94D62088F09F5798F0B92F1C
:104080009927B751B0F0E1F0660F771F881F991F8D
:104090001AF0BA95C9F714C0B13091F00E94F0201F
:1040A000B1E008950C94F020672F782F8827B85F2F
:1040B00039F0B93FCCF3869577956795B395D9F7E5
:1040C0003EF490958095709561957F4F8F4F9F4FEF
:1040D0000895E89409C097FB3EF4909580957095FB
:1040E00061957F4F8F4F9F4F9923A9F0F92F96E944
:1040F000BB279395F695879577956795B795F111B9
:10410000F8CFFAF4BB0F11F460FF1BC06F5F7F4F55
:104110008F4F9F4F16C0882311F096E911C0772367
:1041200021F09EE8872F762F05C0662371F096E870
:10413000862F70E060E02AF09A95660F771F881F3F
:10414000DAF7880F9695879597F9089597F99F67FD
:1041500080E870E060E008959FEF80EC089500240F
:104160000A941616170618060906089500240A94DC
:1041700012161306140605060895092E0394000C62
:1041800011F4882352F0BB0F40F4BF2B11F460FFF1
:1041900004C06F5F7F4F8F4F9F4F089557FD90581A
:1041A000440F551F59F05F3F71F04795880F97FBFB
:1041B000991F61F09F3F79F08795089512161306B5
:1041C0001406551FF2CF4695F1DF08C016161706E4
:1041D0001806991FF1CF8695710561050894089519
:1041E000E894BB2766277727CB0197F908950E94AB
:1041F0000A210C94BD200E94AF2038F00E94B62006
:1042000020F0952311F00C94A6200C94AC201124DE
:104210000C94F1200E94CE2070F3959FC1F3950F6E
:1042200050E0551F629FF001729FBB27F00DB11D3A
:10423000639FAA27F00DB11DAA1F649F6627B00DCA
:10424000A11D661F829F2227B00DA11D621F739FB3
:10425000B00DA11D621F839FA00D611D221F749FC1
:104260003327A00D611D231F849F600D211D822F08
:10427000762F6A2F11249F5750409AF0F1F088232F
:104280004AF0EE0FFF1FBB1F661F771F881F91505C
:104290005040A9F79E3F510580F00C94A6200C9445
:1042A000F1205F3FE4F3983ED4F3869577956795C8
:1042B000B795F795E7959F5FC1F7FE2B880F911D86
:1042C0009695879597F90895FB01DC0102C005904A
:1042D0000D9241505040D8F70895FB01DC0102C017
:1042E00001900D9241505040D8F70895DC0101C073
:0E42F0006D9341505040E0F70895F894FFCFD1
:1042FE002140232425262722282971776572747977
:10430E0075695B5D3D2B2D6667683B3A3F09002A58
:10431E002F6376627B0F000E000D00007E3C3E7D0B
:10432E000A0BF1F2F3F4F5F6F7F8F9FA214023242B
:10433E0025262722282951574552545955494F5061
:10434E004153444647484A4B4C0D005A5843564237
:10435E004E050004000D00005F2C2E4D0203F1F2FD
:10436E00F3F4F5F6F7F8F9FA3132333435363738E7
:10437E00393071776572747975696F7061736466BF
:10438E0067686A6B6C08007A786376626E05000463
:10439E00000D005E202C2E6D0203F1F2F3F4F5F603
:1043AE00F7F8F9FA00001100200035004E006A00FF
:1043BE0086009A00C000E6000F0141016F01A901BD
:1043CE00CA0108024A028402CE0218035A03A1034C
:1043DE00EB0343049304F9045705B905F8055C068D
:1043EE00004992FFE4F1F3E2E1D7A0A5D5D4E6B7F8
:1043FE00B6B5B4E024FFFFFF2526FFFFFFFF2728F9
:10440E00FF292A2BFFFFFFFFFFFFFFFFFFFF2CD02F
:10441E00006701370227033704670520069007203F
:10442E0009D00AA00C900EA0102B127B14EB167B59
:10443E00192B1CFB1EEB2124245427A42A142EA472
:10444E0031543524390B3C1B404B449B480B4D9B40
:10445E00514B56E059D05EE0631069606ED0730127
:10446E00010102020404040505050809090A0A0BE4
:10447E000D0E10111112141517191A1C1D1F2123C0
:10448E002526282B2D2F31010101010102020202E6
:10449E0004040404040606060607080809090A0CA3
:1044AE000C0C0D0E0F1011121313141516181901F2
:1044BE000102040404050608080B0B101012101359
:1044CE0015191919221E202325282A2D3033363985
:1044DE003C3F42464A4D51010102020404060608C1
:1044EE0008080A0C100C11101215141717191B1DA1
:1044FE0022222326282B2D303335383B3E41440AC9
:10450E000010001A00240030004000480058006ED1
:10451E000082009600B000C600D800F000180134EA
:10452E000152016C01A001BA01DC01F80130024C0C
:10453E00028402BC02D80210032C0364039C03D431
:10454E00030C0428046004B404EC0424055C050781
:10455E00000A000F0014001A002400280030003C4E
:10456E00004800500060006800780084009000A8A9
:10457E0000B400C400E000E000FC000E012C013885
:10458E0001500168018601A401C201E001FE011C77
:10459E00023A023A02580276029402D002EE021158
:1045AE00001C002C0040005800700082009C00C0CF
:1045BE0000E0000801340160018001B001E0011447
:1045CE00024C028A02BC02EE0230038403C0031ABC
:1045DE00045604B004EC044605A005FA055406AED4
:1045EE000608076207BC073408AC0806097E090DE9
:1045FE0000160024003400480060006C008400A007
:10460E0000C000E00004012001400168019801C0D3
:10461E0001F801220258028402B202EE022A036657
:10462E0003B803FC031A047404B0040A054605A07B
:10463E0005FA0536069006EA0644079E07F80700B7
:00000001FF
